:020000040800F2
:20000000F0FF0120F98B0608F5F1000855D30408718C0608718C0608718C060800000000FB
:20002000000000000000000000000000F1F10008EDF1000800000000E9F10008ED9604087F
:20004000718C0608718C0608718C0608718C0608718C0608718C060859E4040885E504089F
:2000600049E504080DE50408D1E40408B5700608A57006089570060885700608717006082C
:200080005D70060849700608718C06080000000000000000000000000000000095E404082E
:2000A000D981040825820408C9810408498204081982040809820408F9810408997A060815
:2000C000A17A06088D7A0608957A0608718C0608718C0608C99804080D9804080000000091
:2000E0001DE40408718C06083D0901080000000000000000000000000000000035700608E6
:2001000000000000753D0608E9810408718C0608000000000000000000000000000000009E
:20012000217006080D700608F96F0608E56F0608D16F06080000000000000000000000006F
:200140000000000000000000000000007DEB0008BD6F0608A96F0608956F060851970408C9
:20016000817A0608897A060800000000000000000000000000000000000000000000000065
:2001800000000000718C06080000000000000000718C0608718C0608988706000100000018
:2001A0000E02010002000000DC6600203C67002000000000E00900081402010005000000FA
:2001C0007C3E00204067002000000000E209000813020100040000009424002048670020CA
:2001E00000000000E80900080D1001004C0000005C6400204C6700200000000045F90308A0
:2002000004000800800000009C630020986700200000000000000000090201000100000007
:20022000446300201868002000000000EC090008FD01010024000000E86200201C68002029
:2002400000000000EF620408FB0101000100000028610020406800200000000045820508FE
:20026000FC01010009000000F45F002044680020000000004D820508F7010100060000005D
:20028000E85F00205068002000000000EE090008F901010004000000E45F002058680020DE
:2002A0000000000099630408160215003F0000001C3200205C680020000000006D8205087C
:2002C0003400010010000000D85E00209C6800200000000049980208110201000800000058
:2002E000B05E0020AC68002000000000F40900081212010004000000A85E0020B46800200C
:2003000000000000FC0900081820010032000000745E0020B868002000000000158B050886
:200320001220010011000000945D0020EC68002000000000000A0008000201000B000000D4
:20034000D05A0020006900200000000091820508FF11010006000000785A00200C6900200C
:200360000000000025820508081203000F000000845A0020146900200000000099820508DA
:20038000FA01010003000000705400202469002000000000658205080A8001002800000026
:2003A000504C00202869002000000000A9150208061001001C00000040310020506900206B
:2003C00000000000158305080202010003000000802800206C6900200000000000000000B3
:2003E0000C0201000400000060280020706900200000000035820508110001000C00000067
:20040000A6400020746900200000000055F50308FE01010014000000AC3F0020806900205C
:2004200000000000E9810508F581010068000000DCBC0020A8C1002000000000B9930108D0
:2004400023200100100000005CBD002010C2002000000000BD160208FD07010076000000C5
:2004600030C1002020C2002000000000057C0108261001000E000000A8C2002098C2002096
:2004800000000000B51B01080B3001001A00000004BA0020E8C2002000000000140A00085F
:2004A0001F3001002400000024B9002004C3002000000000300A0008050201000400000096
:2004C00034BC002028C3002000000000540A0008030101000A00000068B900202CC300203C
:2004E0000000000055160108220201001C0100004CDA0020C4DC002000000000CD8A0508DC
:200500000C200600CC000000ACD80020E0DD002000000000BDF30308010201000B00000092
:2005200050D80020ACDE002000000000818205081B0201001000000024D80020B8DE0020B9
:2005400000000000018305081B1001000C000000C4C40020C8DE0020000000007582010864
:2005600021020100F000000044C30020D4DE002000000000159A0108231201001000000070
:2005800084D90020C4DF002000000000580A0008371001002E00000094D70020D4DF0020DD
:2005A00000000000680A0008161001000600000034D5002004E0002000000000960A0008BF
:2005C0002F1001002200000070DC00200CE00020000000009C0A00081E000100090000006B
:2005E000B8D4002030E0002000000000BE0A0008051001000600000004D500203CE00020FE
:2006000000000000C80A0008F62101000C00000050EC00208CEE002000000000D00A000804
:200620001C0202001C000000F4EB0020DCEE0020000000003D8C050828200100180000005E
:2006400010EC0020F8EE002000000000D53C02080412010002000000C8ED002010EF002050
:2006600000000000DC0A00080F02010001000000C4ED002014EF002000000000DE0A000895
:200680001400010004000000ECEB002018EF002000000000E00A0008012001000C00000003
:2006A00020E300201CEF002000000000E40A00080EF003009E01000008E1002028EF002016
:2006C000000000009198020813000100040000003CE80020C8F0002000000000F00A0008B1
:2006E000010101000400000054E00020CCF0002000000000000000000001010004000000BD
:200700004CE00020D0F0002000000000F40A0008020101000300000048E00020D4F0002074
:2007200000000000F9F30308190001000500000078FD0020D8FE002000000000F80A00080E
:200740001A0001000E000000D8FC0020E0FE002000000000FE0A0008203201000A00000011
:2007600070FB0020F0FE0020000000006D98020815001000700000004CF50020FCFE0020C1
:2007800000000000000000002A00080060000000C0FD00206CFF002000000000219802089C
:2007A0002C00040010000000DCFF0020CCFF002000000000099502082B001200240000000A
:2007C00010000120ECFF002000000000DD9402082920140078000000ECF20020340001203A
:2007E0000000000000000000190201001000000090F20020AC00012000000000718205085E
:200800000300010001000000381A0120242201200000000000000000031201003D000000A6
:20082000E019012028220120000000000C0B000825201E002C01000044170120682201205D
:2008400000000000000000001010010002000000C416012094230120000000004A0B000845
:20086000F8210100060000002017012098230120000000004C0B0008020001000C000000B6
:200880008C2501202026012000000000000000002902010040000000D42401202C26012027
:2008A00000000000520B00080A02010014000000C42301208C2601200000000089F3030850
:2008C0002802040004000000E42F0120C031012000000000FD8205082702040004000000E3
:2008E000E02F0120C431012000000000F18205081F020800100000003C2D0120C831012055
:2009000000000000018205081A0201003C000000E4280120D831012000000000C18B05083E
:200920003810010001000000C02601201432012000000000920B000827000100040000002E
:20094000DC320120E432012000000000940B00080B1201003C0000009C340120484701208F
:2009600000000000980B00080D12010014000000504101208447012000000000D40B000813
:200980000702010002000000304701209847012000000000E80B00081D0202000600000091
:2009A0000C4701209C4701200000000000000000060203000C00000018470120244C012097
:2009C00000000000858B0508100201000100000000800120FC7F012000000000EA0B0008AC
:2009E0000000000000FF00000000010000000000010000000000000001010101FFFFFFFFF6
:200A00000000000100010553343131000000000200000000AE014A015E012C0164000200F8
:200A2000000001000A019A01001E0A000002000000000000000100000005000001020300D9
:200A400000000000000000000000000000000000008007000000000000000000000000000F
:200A6000000000000000000020003200C800D00796001400320028004C0440060005500096
:200A800014000F00080064000100010005000A000000F4019600C409000019000000000045
:200AA000000000000000000000000000000000000000000000000000000000000000000531
:200AC0000100000000000000200003010000000000000000010000000202000000000000EC
:200AE00003000023E8036400040A000114001E0000204030900100000000280100007E0573
:200B0000EA05B4053200E803D0070000000000000000000000000000000000000000000039
:200B20000000000000000000000000000000000000000000000000000000000000000000B5
:200B40000000000000000000010000050201F4011400000000000000000000000000000083
:200B6000000000000000000000000000000000000000000000000000000000000000000075
:200B8000000000000000000000000000000000000000000020030000000000000000000032
:200BA000000000000000000000000000000000000000000000000000000000000000000035
:200BC000000000000000000000000000000000000100000000000000000000000000000014
:200BE0000000000000000000003C000403090412010002EF02014083045632000201020347
:200C00000100001201000202020040830440570002010203010800FFFFFFFF00600240109D
:200C20006002400000000000000000000B000000000000000000000000000000600240283D
:200C40006002400100000000000000060C00000000000000000000000000000060024040FD
:200C60006002400200000000000000100D00000000000000000000000000000060024058B9
:200C80006002400300000000000000160E0000000000000000000000000000006002407079
:200CA0006002400400000000000000200F0000000000000000000000000000006002408835
:200CC00060024005000000000000002610000000000000000000000000000000600240A0F5
:200CE00060024006000000000000003011000000000000000000000000000000600240B8B1
:200D00006002400700000000000000362F000000000000000000000000000000640240100F
:200D2000640240000000000000000000380000000000000000000000000000006402402807
:200D40006402400100000000000000063900000000000000000000000000000064024040C7
:200D60006402400200000000000000103A0000000000000000000000000000006402405883
:200D80006402400300000000000000163B0000000000000000000000000000006402407043
:200DA0006402400400000000000000203C00000000000000000000000000000064024088FF
:200DC00064024005000000000000002644000000000000000000000000000000640240A0B8
:200DE00064024006000000000000003045000000000000000000000000000000640240B874
:200E00006402400700000000000000364600000000000000000000000000007D000000012B
:200E200000000015830008118300080D83000801830008FD820008098300080583000800A7
:200E400000000035910008CDAD0008AD9000080DAF00080D92000885830008718300085531
:200E60008300082DA70008498A000839940008AD9400082D950008E5960008310F01085D1F
:200E80008300084D830008010000000000803FF5370108F93C010871380108CD0F0108B174
:200EA000110108DD0F0108F90F0108A50F0108950F0108000000000000000009022000017C
:200EC0000104C0320904000002080650050705810240000007050102400000090264000319
:200EE0000100C0320904000001030000000921110100012236000705830309000A080B01A0
:200F00000202020100090401000102020100052400100105240100020424020205240601F4
:200F200002070582030800FF09040200020A000000070501024000000705810240000009D5
:200F4000024300020100C032090400000102020100052400100105240100010424020205AE
:200F600024060001070582030800FF09040100020A00000007050102400000070581024076
:200F8000000000FF00000000FF0000000000000000AA550701000001AA55050100000898A6
:200FA000CE0608FF1FFF1F05010905A101A10005010930093109320933093509340936090F
:200FC000371581257F75089508810205091901290815002501950875018102C0C000000950
:200FE000022200010100E03209040000010301020009211101000122360007058303090075
:201000000A0000000000000102030401020304060708092D202D2D202D2D2D2D202D2D2D72
:201020002D0000000000000000000000000000000000AA550B010000AA5505010000AA5574
:201040000902000000AA5503009F0001000000C0127EFFE0C2002000000000B8C200200038
:2010600000000001000000F07307086C7307080000000081F40308A0860100040000000064
:20108000000000000000000000000000000000000000000000000000000000000000000050
:2010A00000000000000000F0730708F87307080000000031770408E80300000400000000A1
:2010C000000000000000000000000000000000000000000000000000000000000000000010
:2010E000000000000000000074070800000000000000006D6203087D000000FF0000000017
:201100000000000000000000000000000000000000000000000000000000000000000000CF
:201120000000000000000018F807080000000000000000C57403087D000000FF00000000D0
:2011400000000000000000000000000000000000000000000000000000000000000000008F
:2011600000000000000000608807080000000000000000F5BC03087D000000FF0000000040
:2011800000000000000000000000000000000000000000000000000000000000000000004F
:2011A00000000000000000087407080000000000000000616D0408E80300000300000000DC
:2011C00000000000000000000000000000000000000000000000000000000000000000000F
:2011E000000000000000000C74070800000000000000000D250308102700000300000000E9
:201200000000000000000000000000000000000000000000000000000000000000000000CE
:20122000000000000000002CF40708000000001592020809D404085F76000005000000000B
:2012400000000000000000000000000000000000000000000000000000000000000000008E
:2012600000000000000000BCF7070800000000000000006DF3040810270000010000000008
:2012800000000000000000000000000000000000000000000000000000000000000000004E
:2012A00000000000000000187407080000000000000000C15F0408E8030000050000000077
:2012C00000000000000000000000000000000000000000000000000000000000000000000E
:2012E00000000000000000247407080000000000000000B1F70308204E0000030000000023
:201300000000000000000000000000000000000000000000000000000000000000000000CD
:2013200000000000000000347407080000000000000000ADF50308204E00000300000000D8
:2013400000000000000000000000000000000000000000000000000000000000000000008D
:201360000000000000000044740708000000000000000075730408400D030003000000005F
:2013800000000000000000000000000000000000000000000000000000000000000000004D
:2013A000000000000000005474070800000000000000004D2804081027000001000000009D
:2013C00000000000000000000000000000000000000000000000000000000000000000000D
:2013E00000000000000000987307080000000000000000ADA601081027000003000000003D
:201400000000000000000000000000000000000000000000000000000000000000000000CC
:20142000000000000000005C74070800000000000000008D6F0208A086010001000000009F
:2014400000000000000000000000000000000000000000000000000000000000000000008C
:2014600000000000000000647407080000000000000000E96B040850C30000010000000011
:2014800000000000000000000000000000000000000000000000000000000000000000004C
:2014A000000000000000006C7407080000000000000000B9690408A08601000000000000E8
:2014C00000000000000000000000000000000000000000000000000000000000000000000C
:2014E00000000000000000787407080000000000000000A1650408A86100000100000000D5
:201500000000000000000000000000000000000000000000000000000000000000000000CB
:2015200000000000000000847407080000000000000000D1080208A0860100010000000099
:2015400000000000000000000000000000000000000000000000000000000000000000008B
:2015600000000000000000907407080000000000000000099E0408A00F00000100000000F5
:2015800000000000000000000000000000000000000000000000000000000000000000004B
:2015A000000000000000009C7407080000000000000000D1030208102700000100000000F6
:2015C00000000000000000000000000000000000000000000000000000000000000000000B
:2015E00000000000000000A87407080000000000000000B9F40308A00F0000010000000058
:201600000000000000000000000000000000000000000000000000000000000000000000CA
:2016200000000000000000B4740708000000000000000079DD01081A4100000100000000B8
:2016400000000000000000000000000000000000000000000000000000000000000000008A
:2016600000000000000000B87407080000000000000000891601081027000001000000004F
:2016800000000000000000000000000000000000000000000000000000000000000000004A
:2016A00000000000000000807307080000000000000000A94A020850C30000010000000017
:2016C00000000000000000000000000000000000000000000000000000000000000000000A
:2016E00000000000000000C47407080000000000000000591F0108400D03000000000000D2
:201700000000000000000000000000000000000000000000000000000000000000000000C9
:2017200000000000000000CC740708000000000000000075F50308400D0300000000000095
:20174000000000000000000000000000000000000000000000000000000000000000000089
:2017600000000000000000D47407080000000000000000B9EB010850C3000003000000004F
:20178000000000000000000000000000000000000000000000000000000000000000000049
:2017A00000000000000000E074070800000000000000002505040840420F000000000000FF
:2017C000000000000000000000000000000000000000000000000000000000000000000009
:2017E00000000000000000EC740708000000000000000071FC030850C300000000000000EF
:201800000000000000000000000000000000000000000000000000000000000000000000C8
:20182000000000000000000100000000000100E0010000FFFFFFFF01010000B58801080081
:2018400000000000000000BCD00608FFFFFFFF0800000042570200000001064257020000AD
:2018600000010601FF0101FF000000FFFFFFFF01FA0108000000000000000030D906081138
:201880003302080000000000000000E8D806082D202D2D202D2D2D2D202D2D2D000000001B
:2018A000000000000000000000000000000000000000000000000000000000A4D80608E0BE
:2018C000BB00209CFF2C0100000000FCDB0020E0150C170000000078D9002002000000DC07
:2018E000D80608ACD4002088136F1701000000AED4002088136F17000000005A660020009D
:201900000000000000000058660020000000000000000056660020000000000000000054B9
:20192000660020000000000000000052660020000000000000000050660020000000000073
:20194000000000FC050020000000000000000034D4002003000000CCD90608A4D400208868
:20196000136F17010000002ABC002088136F17000000006D8901080000000000000000DCCB
:20198000D9060879D900200100000030DA06082CBC0020010000003CDA060822BC002002A8
:2019A00000000044DA060800000000000000000000000050DA0608558901080000000000DC
:2019C000000000ECDA060800000000000000000000000040DB06080000000000000000000A
:2019E000000000B0DB0608B0D4002002000000E8DB060826BC0020E0150C1700000000C8F5
:201A0000E400201CE50020D6010000000000000000000000000000ECF106080000000000DF
:201A200000000000000000A4F2060800000000000000000000000050F206080000000000B2
:201A40000000000532020801E80020FF000000FFFFFFFF9535020800000000000000007CF1
:201A6000F1060801000000FA00000001000000010000000101000000010101000000001A4B
:201A8000E300200000F4010100000018E300200000F4010100000016E300200000F401012D
:201AA00000000014E300200000F4010100000012E300200000F4010100000010E3002000FB
:201AC00000F401010000000EE300200000F40101000000F9130208BD13020800000000FC1D
:201AE000DD0608FEE20020053201000CE300206400F401010000000AE300206400C409011B
:201B0000000000FCE20020E803D00701000000FAE20020E803D00701000000F8E20020E863
:201B200003D00701000000F6E200201E00B80B0100000004E3002005000F000100000006CE
:201B4000E3002003000A0001000000F4E200201E00F4010100000008E300200200000088D5
:201B6000DE0608F2E20020140064000100000000E300203200E80301000000F0E2002000F9
:201B800000C80001000000C9E2002000C80100C8E2002000500100C7E20020005A0100C5E4
:201BA000E200200200000094DE0608B47F0708BC7F0708166600200100C409000000001497
:201BC0006600200100C40900000000126600200100C40900000000106600200100C40900E7
:201BE0000000000C6600200100C409000000000E6600200100C409000000000A6600200192
:201C000000C40900000000086600200100C4090000000073E0002000C8010072E0002000ED
:201C2000C8010070E000200000FFFF0A0000006EE000200100C800010000006CE00020328D
:201C4000003075320000006AE000207EFF14000500000068E0002005002C010500000066A8
:201C6000E00020055A050063E0002000FF010065E00020020000005811002061E000200349
:201C8000000000B0D5060862E0002000FF010064E00020020000005811002060E0002003FD
:201CA000000000B0D506084D130208DD12020800000000A0DE060830E30020EE02CA0801AC
:201CC0000000002EE3002000C80100640000002DE3002000C80100640000002CE300200218
:201CE000000000ACDF06085AE000200000803E0500000058E0002080C1803E050000005280
:201D0000E000200083007D0500000050E0002080C1803E050000004BE0002000FF010046D9
:201D2000E000206400F4010100000045E0002004000000B8DF060844E0002002000000CC49
:201D4000DF0608F9E000200D000000D8DF0608F6E0002000640100F4E00020320010270A09
:201D6000000000F2E000200D000000D8DF0608F1E000200D000000D8DF0608F0E0002002EA
:201D800000000010E006080000000000000000000000001CE0060836E300203E0000005470
:201DA000E0060834E300200100FF7F0100000033E300200200000050E10608FBE000200309
:201DC00000000060E10608FAE000200300000060E10608B6E20020000A0100B4E2002000EF
:201DE00000E80301000000B2E200200000E80301000000B0E200200000E80301000000AE0B
:201E0000E200200000E80301000000A6E200200000E80301000000ACE200200000E80301A6
:201E2000000000AAE200200000E80301000000A8E2002000140100C4E20020020000007013
:201E4000E10608C2E200200000F40101000000C0E200200000F40101000000BEE200200061
:201E600000F40101000000BCE200200000F40101000000BAE200200000A00F01000000B894
:201E8000E200200000A00F01000000DDE2002019640100DCE20020020000007CE10608DA0E
:201EA000E20020E803D0070A000000D8E20020006401000A000000CDE2002000640100CC0B
:201EC000E2002000640100D4E20020006401000A000000D3E20020006401000A000000D240
:201EE000E20020006401000A000000D7E2002000FF01000A000000D6E2002000FF01000AAC
:201F0000000000D5E2002000FF01000A000000D1E2002001FF01000A000000D0E20020012F
:201F2000FF01000A000000CFE2002001FF01000A00000004E100200000F4010100000002BE
:201F4000E100200000A00F0100000000E100200000A00F01000000FEE000200000A00F0171
:201F6000000000FCE000200000A00F0100000051E8002000C8010050E80020006401004F87
:201F8000E80020006401004EE80020006401004DE80020006401004CE80020FF0801004BB8
:201FA000E800200164010045120208091202080000000088E1060854E800200132010053D3
:201FC000E8002001000000F8E1060852E800200400000000E206084AE800200064010048C4
:201FE000E800201400E8030100000046E80020E80330750A00000044E8002000C801004399
:020000040800F2
:20200000E8002000C8010042E8002000C8010041E800200032010056E80020004B01005561
:20202000E800200400000014E2060840E80020006401000A00000064E800200000D0070195
:202040000000005FE8002000C801005EE8002000C801005DE8002000C8010062E800200089
:2020600000D007010000005CE8002000C801005BE8002000C801005AE8002000C8010060A4
:20208000E800200000D0070100000059E8002000C8010058E8002000C8010057E8002000AE
:2020A000C80100FD0F0208E50F02080000000028E20608EDE00020005A0100ECE0002000F7
:2020C000C80100EAE00020E803D00701000000000000000000000045320208C4E206085302
:2020E000544D3332463431310000005FE00020000301005EE0002000030100290F0208E512
:202100000E02080000000018E30608AD0E02086D0E020800000000B4E306086D0F020879B0
:202120003502080000000034E406085CE0002001030100D5140208A9140208000000008C93
:20214000E70608150E0208E50D020800000000FCE706080D100208CD3602080000000098A4
:20216000E80608953A0208011502080000000040E906085D1002080000000000000000CCF6
:20218000E9060839110208E11002080000000030EA0608CD1102089111020800000000D865
:2021A000EA0608DD8B0208811202080000000064EB0608EFE2002001060100A51002087192
:2021C0001002080000000060EC0608118B02089937020800000000D0EC0608258C02086125
:2021E0003802080000000020EE0608EEE2002001030100B50F0208850F020800000000F42C
:20220000EE06087D8C0208000000000000000058EF0608450E02086135020800000000D885
:20222000EF060800000000000000000000000064F00608B5120208D938020800000000D47F
:20224000F0060801010000BC000120FFFFFFFF0000803F00000000000000000000000000E6
:2022600000000000000000000000000000000000000000000000000000803F00000000009F
:20228000000000000000000000803F0000000000000000000000000000803F0000000000C0
:2022A00000000000000000010000000000FA430000FA430000803F5D2A0408000000000051
:2022C00000000000000000FFFFFFFFFF000000000000007C26012008000000000000006CCC
:2022E00026012008000000200000004D370108C1100108E536010800000000910F0108CD6E
:202300003F010835360108813201080000000000000000510F01082583000819830008394F
:20232000900008559000081D90000801900008E58F0008053701089D1001083936010800DB
:20234000000000690F01088532010809360108E131010800000000000000005D0F010868FC
:202360005E0C00FFFFFFFF02010000A00F0000B80B000002FFFF01FFFF000020F407080060
:20238000000802050303000000000028F40708010008020504030000000000FC9B0708023E
:2023A00000FE0101100300000000001083070803001402000300000000000030F407080415
:2023C000001F02020008000000000038F4070805001F020201080000000000FFFFFFFF1A50
:2023E0000300000000000000000000000000000000000000000000000000000403090412B4
:2024000001000200000040830420570002010203010B01B5930508899305082D930508C952
:2024200083050849930508ED920508C5830508DC1A0020A9940508C994050899940508A995
:20244000830508559405080D94050899830508B81A0020C98C0508B1830508AD830508A5A8
:20246000830508118E0508A18305089D83050870450708693F01087D100108493E01080027
:2024800000000000000000E1350108F1340108000000000000000000000000450F01085141
:2024A000840508458405081995050835950508FD830508FD940508E1940508FFFFFFFF0179
:2024C00000000050C30000010100001F0000001C0000001F0000001E0000001F0000001E32
:2024E0000000001F0000001F0000001E0000001F0000001E0000001F0000000068214C014E
:20250000250000B4420708104F0708008002021F00000053544D202020202050726F6475E2
:202520007420202020202020202020302E3031008002021F00000053544D202020202050A1
:20254000726F64757420202020202020202020302E3031FF010000F4010000FF2A00000030
:2025600000040100000000000000021000000007000000000000000000000001020304062D
:2025800007080901000000381B0020000000000000000000000000000000000000000000AF
:2025A00000000000000000000000000000000000000000000000000000000000000000001B
:2025C0000000000000000000000000000000000000000000000000000000000000000000FB
:2025E0000000000000000000000000FFFFFFFFFFFFFFFFFFFFFFFFFFFFFFFFFFFFFFFFFFF0
:20260000FFFFFFFFFFFFFFFFFFFFFFFFFFFFFFFFFFFFFFFFFFFFFFFFFFFFFFFFFFFFFFFFDA
:20262000FFFFFFFFFFFFFFFFFFFFFFFFFFFFFFFFFFFFFFFFFFFFFFFFFFFFFFFFFFFFFFFFBA
:20264000FFFFFFFFFFFFFFFFFFFFFFFFFFFFFFFFFFFFFFFFFFFFFFFFFFFFFFFFFFFFFFFF9A
:20266000FFFFFFFFFFFFFFFFFFFFFFFFFFFFFFFFFFFFFFFFFFFFFFFFFFFFFFFFFFFFFFFF7A
:20268000FFFFFFFFFFFFFFFFFFFFFFFFFFFFFFFFFFFFFFFFFFFFFFFFFFFFFFFFFFFFFFFF5A
:2026A000FFFFFFFFFFFFFFFFFFFFFFFFFFFFFFFFFFFFFFFFFFFFFFFFFFFFFFFFFFFFFFFF3A
:2026C000FFFFFFFFFFFFFFFFFFFFFFFFFFFFFFFFFFFFFFFFFFFFFFFFFFFFFFFFFFFFFFFF1A
:2026E000FFFFFFFFFFFFFFFFFFFFFFFFFFFFFFFFFFFFFFFFFFFFFFFFFFFFFFFFFFFFFFFFFA
:20270000FFFFFFFFFFFFFFFFFFFFFFFFFFFFFFFFFFFFFFFFFFFFFFFFFFFFFFFFFFFFFFFFD9
:20272000FFFFFFFFFFFFFFFFFFFFFFFFFFFFFFFFFFFFFFFFFFFFFFFFFFFFFFFFFFFFFFFFB9
:20274000FFFFFFFFFFFFFFFFFFFFFFFFFFFFFFFFFFFFFFFFFFFFFFFFFFFFFFFFFFFFFFFF99
:20276000FFFFFFFFFFFFFFFFFFFFFFFFFFFFFFFFFFFFFFFFFFFFFFFFFFFFFFFFFFFFFFFF79
:20278000FFFFFFFFFFFFFFFFFFFFFFFFFFFFFFFFFFFFFFFFFFFFFFFFFFFFFFFFFFFFFFFF59
:2027A000FFFFFFFFFFFFFFFFFFFFFFFFFFFFFFFFFFFFFFFFFFFFFFFFFFFFFFFFFFFFFFFF39
:2027C000FFFFFFFFFFFFFFFFFFFFFFFFFFFFFFFFFFFFFFFFFFFFFFFFFFFFFFFFFFFFFFFF19
:2027E000FFFFFFFFFFFFFFFFFFFFFFFFFFFFFFFFFFFFFFFFFFFFFFFFFFFFFFFFFFFFFFFFF9
:202800000828000800400008FFFFFFFFFFFFFFFFFFFFFFFFFFFFFFFFFFFFFFFFFFFFFFFF50
:20282000FFFFFFFFFFFFFFFFFFFFFFFFFFFFFFFFFFFFFFFFFFFFFFFFFFFFFFFFFFFFFFFFB8
:20284000FFFFFFFFFFFFFFFFFFFFFFFFFFFFFFFFFFFFFFFFFFFFFFFFFFFFFFFFFFFFFFFF98
:20286000FFFFFFFFFFFFFFFFFFFFFFFFFFFFFFFFFFFFFFFFFFFFFFFFFFFFFFFFFFFFFFFF78
:20288000FFFFFFFFFFFFFFFFFFFFFFFFFFFFFFFFFFFFFFFFFFFFFFFFFFFFFFFFFFFFFFFF58
:020000040800F2
:20400000ADBE08000E02000000000B0014020000000000FF000A001302000000000100528B
:20402000000D00010001000000140504050000000000000000000504050000000000080039
:20404000000105040500000000000000000505040500000000000000001E05040500000012
:2040600000000000001F0504050000000064005200860004000000000000000000000000D3
:20408000000000000000000000000000000000000000000000000000000000000000000020
:2040A000000000000000000000000000000000000000000000000000000000000000000000
:2040C0000000000000000000000000000000000000000000000000000000000000000000E0
:2040E0000000000000000000000000000000000000000000000000070009020000002A0084
:20410000FD0100001912000000000000000000001A13000000000000000000000000000049
:2041200000000000000000000700FB0100001A0F00FC0100000000000000000000000C004A
:20414000F70100000000010000000A00F90100003E0000004500160200001001001801009D
:204160001A01FF2102002701002801002A0100000000000000000000000000000000000086
:2041800000000000000000000000000000000000000000000000000000160034000000DCF9
:2041A0000532000000000000000000000001040E001102000000000000010101010A001282
:2041C000020100FFFFFFFF380018000200000103020405060709000000000001006400DC28
:2041E000051A04D007020213001900750343080E00000100000001030A1E0101000000177E
:2042000000120002000000000100010553343131000008020200110000020000000000007B
:2042200000FF00000000000C00FF010100000000000000150008020100151617FFFF2D2EB7
:204240002FFFFF232425FFFF0900FA0100001802002E000A00080030000000C8001301005D
:20426000000000000000000000020000029E077D00DC00260258020800F401780000012222
:204280000006000100E001060000020128102A270000000000010058022E04D007E8030C49
:2042A000000900020200000000000A000C020000012C020012001100000001001234567872
:2042C0009ABC000000001A00FE0100000111010001200000010000000000000001FFFF003B
:2042E0006E00F5010800980864001401000A010A0000FF1F0000142800002C3700008000E7
:20430000FFFFFFFF4600010200000000000000000000000000000000000000000000000058
:20432000000000000000000000000000000000000000000000000000000000005000C4FF6A
:2043400000FFFFFFFF0100000005180B00001600230002000A000000F4FF00000E000100F1
:20436000000000007C00FD07000061098109CD084E00CE008201960976098A09210920005A
:204380005701EA00EA00EA00EA00EA00EA00EA00EA00EA004A092C00EA00EA00EA006100ED
:2043A0004100EA000B01EA006200EA00EA00EA00A30096002100EA00EA001601EA00EA00A3
:2043C000EA00EA00EA0061018200EA00EA00EA00EA00EA00EA00EA004101EA002300EA009C
:2043E00014002600010002000000000115005802D903000020000B000300AE014A015E01AD
:204400002C0164010100000001000A019A01001E0A0000022A001F000300000000000001EB
:204420000000000500000102030000000000000000000000000000000000008007000A00E0
:20444000050200000000000010000301000004040200A81600000000220122020000050825
:20446000E916D516C116AD169916851671165D16651678168B169E16B116C416D716EA1688
:204480004916351621160D16FD161117251739176C1680169416A816BC16D016E416F81611
:2044A0001A163F1664168916AE16D316F8161D17000000000000000000000000000000006F
:2044C0000000000000000000000000000000000000000000000000000000000000000000DC
:2044E000424F5343414D5F4100424F5343414D5F4200424F5343414D5F4500464154534842
:2045000041524B005241434542414E440042414E44362020200042414E44372020200042F4
:20452000414E44382020200041424546523637383100320033003400350036003700380067
:20454000010101010100000004000000010002000300000000000000000032352000313064
:20456000300032303000333530004C5634004C5635004C5636004C563700D2000C000200A3
:20458000320000646464000000464646420032050064CE07CE07CE0701000000000000008E
:2045A0000000320000646464000000464646410046050064CE07CE07CE070100000000005B
:2045C00000000000320000646464000000464646410046050064CE07CE07CE07010000003B
:2045E000000000000000320000646464000000464646410046050064CE07CE07CE0701001B
:204600000000000000000000320000646464000000464646410046050064CE07CE07CE07FB
:2046200001000000000000000000320000646464000000464646410046050064CE07CE07AF
:20464000CE0701000000000000000000110001020000000000000200000000000016001B3D
:2046600002000006000000E8030000000000000000000012001B000100002100020301F4FE
:204680000132000100F60021020000000200001002000000000000000000000000000000B9
:2046A0000000000000000000000000000000000000000000000000000000000000000000FA
:2046C0000000000000000000000000000000000000000000000000000000000000000000DA
:2046E0000000000000000000000000000000000000000000000000000000000000000000BA
:204700000000000000000000000000000000000000FFFF000000FF1E0000FF3C0000FF5AEA
:204720000000FF780000FF960000FFB40000FFD20000FFF00000FF0E0100FF2C0100FF4A77
:204740000100FF0000000000000000010B020D0A03050B030D0A030A0B040D0A03080B04BA
:204760000D0A03070B030D0A03000000000000060A01000002030600000003160023020195
:20478000000000000000000000000000000000000034003700010020003200C800D0079626
:2047A000001400320028004C0440060005500014000F00080064000100010005000A000000
:2047C00000F40196000C0016000100C4090000B40028002F0001004D6574656F7238350079
:2047E000000000000000000000000000000000000000000000000000000F001E000000008C
:2048000005010000000000000C00050001002000010100001200F601020000000000010052
:2048200000000000000022001C02000000020114000026020000000084030102000000006F
:2048400000010000000000001E00280002000000000102000000000000000000000000000C
:20486000000000000000080004020100000007000F020000000A00140000000301002312BA
:204880000001000200E8036400040A000114001E00A4010E000F000000960000000000210C
:2048A000331E0043002437210046002C5000003F0032324B0000002800000000000064F4B8
:2048C00001900101374B000000FA00FC0800000000320090015E01F40100000A640000C878
:2048E000009001960000050F00010C0314004B3200005A140B00004600AA00001400280136
:2049000000C80000000025146400000F000000000000000000003232C89602643C25050095
:204920000000009600000000002A5523005A002E5A26005F002D5A00005A0032324B000048
:20494000002800000000000064F401900101374B000000FA00AC0D00000000320090015EEE
:2049600001F40100000A640000C8009001960000050F00010F0114004B3200005A140B00B5
:20498000004600AA00001400280100C80017190025146400000F0000000000000000000046
:2049A0003232C89602643C2505000000009600000000002A5523005A002E5A26005F002D9D
:2049C0005A00005A0032324B0000002800000000000064F401900101374B000000FA00AC39
:2049E0000D00000000320090015E01F40100000A640000C8009001960000050F00010F0111
:204A000014004B3200005A140B00004600AA00001400280100C80017190025146400000FBB
:204A2000000000000000000000003232C89602643C250500000A0013000000000044320A4B
:204A40000001010000000000000A0000010000520300000900020100006E0A010B0019004B
:204A60000000000028010014001A0000007E05EA05B4053200E803D007000010002002038B
:204A8000000364F4010064F401960076001500000000000000000000000000000000000040
:204AA0000000000000000000000000000000000000000000000000000000000000000000F6
:204AC0000000000000000000000000000000000000000000000000000000000000000000D6
:204AE0000000000000000000000000000000000000000000000000000000000000000000B6
:204B00000066002A00000000000000E803D007DC0564FF00000000E803D007DC0564FF00F9
:204B2000000000E803D007DC0564FF00000000E803D007DC0564FF00000000E803D007DCCB
:204B40000564FF00000000E803D007DC0564FF00000000E803D007DC0564FF00000000E8F9
:204B600003D007DC0564FF16002C000000E803D007E803D007E803D007E803D0072A002B78
:204B8000000000001E001E001E0005011E011E011E011E011E011E011E011E011E011E017F
:204BA0001E011E011E011E7E00290002000000203000000101001000000201102000000B31
:204BC00003203000001B022030000000000000000000000000000000000000000000000015
:204BE0000000000000000000000000000000000000000000000000000000000000000000B5
:204C0000000000000000000000000000000000000000000000000000000000000000000094
:204C200000000000001600190200000800000000000000001F03223F013D00070003000070
:204C400000004300030201000000000000000000000000000000000000000000000000000B
:204C6000000000000000000000000000000000000000000000000000000000000000000034
:204C80000000000001320125000200000000000000000000000000000000000000000000B9
:204CA0000000000000000000000000000000000000000000000000000000000000000000F4
:204CC0000000000000000000000000000000000000000000000000000000000000000000D4
:204CE0000000000000000000000000000000000000000000000000000000000000000000B4
:204D0000000000000000000000000000000000000000000000000000000000000000000093
:204D2000000000000000000000000000000000000000000000000000000000000000000073
:204D4000000000000000000000000000000000000000000000000000000000000000000053
:204D6000000000000000000000000000000000000000000000000000000000000000000033
:204D8000000000000000000000000000000000000000000000000000000000000000000013
:204DA000000000000000000000000000000000000000000000000008001000010000050CC9
:204DC00000F80102000101F40114001200020000000000000000000000000000004600294A
:204DE0000200000000000000000000000000000000000000000000000000000000000000B1
:204E0000000000000000000000000000000000000000000000000000000000000000000092
:204E20000000001A000A02000000004A01B400D6010000C2010E019600440000000A002898
:204E4000020000000000000A00270200000000000016001F020000FFFFFFFFFFFFFFFFFFEF
:204E6000FFFFFFFFFFFFFF42001A02000000000000000000000000000000000000000000DB
:204E800000000000000000000000000000424546480042455441465056463431315258006F
:204EA000000000000000000100070038000100000A00270000002003000042000B0201000D
:204EC0000013EFD10F171F272F373F474F575F676F777F878F979FA7AFB7BFC7CFD7DFE78B
:204EE000040C141C242C343C444C545C646C747C848C94000000000000291D1E1A000D0281
:204F000001000000000000000000000000000000000000000000080007020000003C0C0037
:204F20001D020000000000000000120006020000000001000000010000000100070010021C
:204F40000000000000D25900FFFFFFFFFFFFFFFFFFFFFFFFFFFFFFFFFFFFFFFFFFFFFFFF3E
:204F6000FFFFFFFFFFFFFFFFFFFFFFFFFFFFFFFFFFFFFFFFFFFFFFFFFFFFFFFFFFFFFFFF51
:204F8000FFFFFFFFFFFFFFFFFFFFFFFFFFFFFFFFFFFFFFFFFFFFFFFFFFFFFFFFFFFFFFFF31
:204FA000FFFFFFFFFFFFFFFFFFFFFFFFFFFFFFFFFFFFFFFFFFFFFFFFFFFFFFFFFFFFFFFF11
:204FC000FFFFFFFFFFFFFFFFFFFFFFFFFFFFFFFFFFFFFFFFFFFFFFFFFFFFFFFFFFFFFFFFF1
:020000040800F2
:020000040800F2
:20800000F0B401292A4C2B4D23684FF0000694BF00270127EE626662A6626763676B47EA45
:2080200042076763EE63EC6B002A38D144F49574EC631C6824F001041C601C68E407FCD46A
:20804000490289085960D8601968EAB921F04001196019498B421DD018494FF47410C860F8
:20806000196841F01E011960596941F080015961196841F00101196022B90E4AD36A43F0B8
:208080000803D362F0BC704741F0400119600A498B42E1D14FF0746041F8500CE0E744F0DD
:2080A0001A04EC63EC6A44F00804EC62C1E700BF981B0020002C0140586402400064024024
:2080C0001148002302461178032902F1060216D00133062BF7D10D4AD36D052B0ED0591CFF
:2080E00003EB4303D16500EB4303032040F2EB3140F2FF32187059809A807047704703EB3A
:20810000430300EB4303F0E7D01B0020981B002070B4C3080D4CE25C00F00706B24004EBCF
:20812000D004D2B20020C6F108038B4228BF0B46C3F108052A419840C91A40EA02004FF0AE
:20814000000614F8012FEED170BC7047381C0020084AD2E9343199420AD0D118013391F8FA
:20816000D8100170C3F30A03C2F8D0300120704700207047981B0020064AD2F8D838D2F8B3
:20818000DC28934294BF4FF400600020013B9B1A18447047981B0020012380F85130704745
:2081A00007B501A8FFF7D4FF0028FAD09DF8040003B05DF804FB044BD3E93403984288BF9C
:2081C00003F50063181A7047981B002001207047024BC3F8E028C3F8E4187047981B00205F
:2081E000024BC3F8E828C3F8EC187047981B00207047704730B4134DD5E934239A4286BF36
:2082000003F50064A21A9A1A0A44B2F5006F13D8A9B101444A1E013810F8014FE9188242E6
:2082200003F1010381F8D840C3F30A03F4D1C5F8D430002030BC7047022030BC7047084696
:20824000F8E700BF981B0020212838B50C4605D022282ED0202813D0002038BD0029FBD0D4
:20826000072AF9D11A4BD3F8F00893F8F41893F8F52893F8F638206021716271A371EBE718
:208280000029E9D0072AE7D1114DD5F8E4381BB10968D5F8E0089847206821796279A379E2
:2082A000C5F8F00885F8F41885F8F52885F8F638D2E70029D0D0022ACED1054AD2F8EC38B1
:2082C000002BC9D00988D2F8E8089847C4E700BF981B0020024B0020C3F8F808704700BFD5
:2082E000981B0020044B00200522C3F8F828C3F8EC08C3F8E4087047981B0020704700BFE4
:20830000704700BF704700BF704700BF704700BF704700BF704700BF042301480B807047E7
:208320009801002010B4074A074B92F8FC08122403F114020C8001280CBF184610465DF8C6
:20834000044B7047981B00209C01002000487047201C002000487047201C0020034B93F8F8
:208360008400032894BF002001207047981B0020034B93F88400032894BF0020012070475D
:20838000981B0020034B93F88400003818BF0120704700BF981B0020A0B182680D4B12B1DE
:2083A00007229A7070471978DA6003294FF004000CBF80214FF48071C3E901111A611A7531
:2083C00098707047034B41F2E47101225A545A70704700BF949900200378022B10D00069B9
:2083E00008B9012070470C4B1B78032B0EBF0B4B80B24FF6F773984294BF002001207047A3
:208400000549436841F650028A58B3EB422F2CBF01200020704700BF94990020F7FFFF0FF6
:208420000378022B14D030B4104A4368006941F6480402F5C2511559096841F63C042B4010
:2084400012595B0A023801FB0030104430BC7047064B426841F6340141F630005958185800
:2084600000EB410000EB5220704700BF949900200E4B70B5D3F8BC4041F06CF8A38905465F
:2084800042F20F7623899B0705D52046FF21BDE870405EF017BE41F05DF8401BB042F1DD5C
:2084A000204646F083FAC0B270BD00BF981B002070B505460E460924FFF7DAFFFF2803D1B7
:2084C000013CF9D1012070BDFE2801D0022070BD064933462A46D1F8BC0000215EF03CFE9B
:2084E000FFF7C6FFFFF7C4FF002070BD981B00202DE9F04383B040F040060C0E05460A0A7D
:20850000080C95238DF801408DF804108DF800608DF802008DF803208DF805300824FFF740
:20852000A7FFFF2802D0013CF9D125BB1E4BD3F8BC40A3890627E84642F20F76B8F1000F8D
:2085400030D018F8015B41F005F8814623899A0715D5ADB2A58140F0FDFF05462389DB07F9
:2085600017D5013FA389E9D10924FFF781FFFF2802D1013CF9D1FF2003B0BDE8F08340F02B
:20858000E9FFA0EB0900B042E0DD204646F00EFAEAE740F0DFFF401BB042DFDD204646F088
:2085A00005FAE1E7FF25CEE7981B0020F8B5194F0023C7F88030FFF75BFFD7F8BC4040F056
:2085C000C9FFA389054642F20F7623899B0710D52046FD215EF076FDFFF74AFFFF2811D1E3
:2085E000FFF746FFFF280DD10423022087F88430F8BD40F0AFFF401BB042E6DD204646F080
:20860000D5F9E9E7D7F800397B670923002087F88430F8BD981B00202DE9F041684C0023AD
:208620004FF4F0722021064604F6081084F8043963F005FE04F6E8204FF4F072202163F0AC
:20864000FEFD94F8C90C10B194F8CA2C1AB900252846BDE8F08144F05FFB0746C4F8D40C88
:2086600044F02EFE05460028F1D00FB12323FB800921384640F04CFAD4F8D40C514F44F047
:2086800041FE94F8CA0C013840B246F0D1FA0223102184F8CC3CC4F8D00C5EF02BFD798D1F
:2086A000494846F039F9D4F8D40C44F025FEFF218C205AF07FFC8046D4F8D40C44F022FE67
:2086C000D4F8D00C04215EF015FDB8F11B0F05D0D4F8D40C202140F01BFAB8E7D4F8D43C18
:2086E000012284F804290BB12322DA80798D364846F012F9D4F8D40C44F0FEFD40210A2028
:208700005AF058FCFF218A205AF054FCC0F38013D4F8D40C84F8D83C44F0F4FDD4F8D00C08
:2087200004215EF0E7FC94F8C83C012B3FD0022B37D0CBB394F8D93C182B08D194F8D82C19
:208740007B8DA4F8DC6CA4F8DE2CA4F8E03C798D1D4846F0E1F8798D1B4846F0DDF8D4F815
:20876000D40C44F0C9FD022100205AF023FCD4F8D40C44F0C7FD0421D4F8D00C5EF0BAFCFE
:2087800094F8E92C94F8EA3C94F8E81C84F8E41CC2F12002C3F1100384F8EB2C84F8EC3CA7
:2087A00056E708237B85C5E710237B85C2E7002EF7D094F8D83C002B14BF08231023F1E700
:2087C000981B002098010020642800202DE9F84F564B984210D003F568530833984267D0AA
:2087E000534B0020A3F8480DA3F8540DC3F84C0DC3F8500DBDE8F88F4D4C4E4E02224FF0DF
:20880000000BC4F8F02C04F6F445D9464FF4007A4FF48078F26A01275A455946BB4403D097
:20882000D4F8640D53F004FF94F8682D85F82420D4F8640DA5F804A04FF000724FF48031B0
:20884000A960EA60A5F8108085F81290A5F806802F762862B72154F0E1F8D4F8F02C364BC9
:208860006F76934545F8283BD4DB84F8569DD4F8F01CB4F8F82CD4F8003DD4F8FC0CB4F84C
:20888000045DC4F86C3D12FB01F203FB01F3A4F8482DB4F8FA1C294AC4F84C0DC4F8503D7C
:2088A000A4F8545DA4F84A1DC4F8442D0120A1E71F4C204E0223C4F8F03C04F6F4454FF03A
:2088C000000B4FF4806A4FF040094FF40068F26A01275A455946BB4403D0D4F8640D53F019
:2088E000A7FED4F8641D94F8682D296285F824204FF400314FF00062C5E90212A5F804A001
:20890000A5F81090A5F80680AF74FFF7D9FB28466F7653F0D5FFD4F8F02C094B45F8283BC4
:208920009345D4DB84F8567DA1E700BF1971EF00981B002098010020E0C2060838C306085C
:208940000CC30608F8B51A4C94F8703D002BFBD159B301444E1E451ED4F8DC28D4F8D8184B
:2089600015F8017F531CC3F30A038B422CBF4FF400600020C91A22440144012982F8747D9A
:20898000C4F8DC380FD1012040F010FED4F8D838D4F8DC188B4294BF4FF4006200225B1AD0
:2089A0001344012BEFD0B542D6D10020F8BD00BF981B002010B5094CD4F8F83808461146B5
:2089C0005BB1D4F8F838052B07D1002AD4F8003903DDFFF7B7FFD4F8003910BD981B002027
:2089E00010B590F85010002380F8503081B10B4CD4F8F82872B1D4F8F828052A0CD13C30B3
:208A0000D4F80039FFF79EFFD4F80039012010BD0120FCE71046FAE71846F8E7981B002080
:208A2000002280F85120DBE790F85020531C0244DBB280F8503082F83C1090F851200AB1BD
:208A4000132B00D9CCE770472DE9F8434379574D002B14BF0122002285F8B02003D185F803
:208A60008430BDE8F88390F8018008F1FF3676B2044630460F4646F0DBF80223C5F8BC0007
:208A800085F8B8302378002B63D1E478002C54D14FF48071D5F8BC00C5F8C0405EF02AFBDD
:208AA0004FF47A7040F082FDD5F8C00044F02AFCD5F8BC404FF00A08A38942F20F764FF0B5
:208AC000FF090BE0A4F80C9040F044FD07462389D9072CD5B8F10108A3890DD040F03AFDFE
:208AE000074623899807EDD440F034FDC01BB042F7DD204645F05AFFD5F8BC102C4B0A8984
:208B000092070AD50A8912F0800206D1D5F8001985F8782001236967A1E7013BEFD195F8EF
:208B2000782085F88430531C85F8783099E740F011FDC01BB042CADDDBE7204644F0ECF866
:208B4000044608B11E23C380092120463FF0E0FF9EE706EB86063E44414696F90320002013
:208B600041F0E2F8064630B1406841F0CBF8B36885F8CE3018B9002385F8C43085E70D4A63
:208B8000431E02EB4311303291F8486002EB4313C5F8C830002EEED11723A1F848305DF023
:208BA000A1FE012385F8C4306FE700BF981B0020A1860100980100202DE9F04FCF4ED04D29
:208BC00086468C4617460FCE05F27C442DED068B0FC40FCE0FC496E807008BB095F8B234A5
:208BE000059784E80700CDE906EC042B00F24981DFE813F0A801470142010500B8019FED8B
:208C0000C18ADFEDC18AC149C5F89814C049C14BC14AC5F894140599002918BF134638EEDD
:208C2000887AF5EE006AC6EE879ABC4EC5F8A034A6F11503039306F1C0080027DFEDBF7A45
:208C40009FEDB79A28EE278AB0EE67AA079BBB4200F00C81039B13F8014B039307F1010B16
:208C60005FFA8BF3002C00F08081002203E00132152A00F07A8102EB42014FEA420918F8DA
:208C80000100A042F3D12944049391F88D15002900F0738120463FF021FD824600683FF0DF
:208CA000C1FC9AF805103FF039FD90F800C0BCF1000F40F05A8105EB09014FEA141909F182
:208CC000FF39049B81F8CD350322B9F1040F81F8CC2504F00F0000F2FF80924C04EB49016B
:208CE000B1F8B0C04CFA00F111F0010100F02881012101FA00F0013800EA0C00A1440493D0
:208D00005FF002FE99F8BCC0DFF82CE2049B60440EEBC00C03228CF807308CF806205EF82A
:208D20003000C6F814C000F13F4303F57E0304EB9324012194F8C4309AF8082003F01F046D
:208D40005B09032B01FA04F100F0D380042B00F0CB80022B00F0C380BCF804300893B3FA54
:208D600083F3C3F11F03C3F3CC0100EB810103F007030C6A9B004FF00F0C0CFA03FC24EA3C
:208D80000C040C620C6A02FA03F323430B62022308A909930BF02AFC059B002B76D0B5F8C9
:208DA000B034D5F8781807EE903AF8EEE77AFCEEE77A17EE900AB1FBF0F202F57F42FF320B
:208DC000120CB1FBF2F295F8B214B2FBF0F0042983B272D007EE902AF8EE676A66EE887AA5
:208DE00029EE677A95F8B30406990091A8EEA67A019051463046C6ED027A86ED037A36F06E
:208E00004BFF002F64DD7368D5F8D024934261D0012F5DD0D5F8E82493425BD0022F57D068
:208E2000D5F80025934255D0032F51D0D5F8182593424FD0042F4BD0D5F83025934249D097
:208E4000052F45D0D5F84825934243D0062F3FD0D5F86025D31A18BF01235F460122082F2A
:208E60003374727406F118067FF4F0AE2E480BB0BDEC068BBDE8F08F9FED2C8AF0EE488ABE
:208E8000C1E69FED2B8AF0EE488ABCE6B0EE690A60F02AFEFCEEC07A4FF6FF7317EE902A75
:208EA000D5F87818B1FBF2F21A44120CB1FBF2F295F8B214042918468CD107EE900A07EEFA
:208EC000102AF8EE677AF8EE476A67EE8A7A87E70123C2E70023C0E7C6F814C05CE7154B67
:208EE0005C6C2143596437E7124B1C6B2143196332E7104B1C6C214319642DE764C3060881
:208F0000902C0020ACC5A737ACC5A7364162030885630408A55F0308796304085C31002092
:208F200000007A44E0C206080C310020282930386F12033900380240883200206F12833A5E
:208F4000716129E71FED038A0D4A0E4BC5F89824C5F8943400220123CDE90532F0EE488A05
:208F6000094B5CE69FED098AEEE7094A064BC5F89824C5F8A034002079E70B68FFDE00BF2A
:208F800041620308856304087963040800000000F5600308104B70B5D3F878480546006829
:208FA0000E4664080BF026FAB4FBF6F1B1F5803F03D3012CFAD96408F6E72246284689B2AB
:208FC0003FF02AFA0549064B0B6028460022BDE870403FF041B900BF902C0020703D0020BE
:208FE0004DFF010810B5044C04480A4621460AF07BF8204610BD00BF783D002054710708FC
:2090000010B5044C04480A4621460AF06DF8204610BD00BF783D00206471070810B5044C19
:2090200004480A4621460AF05FF8204610BD00BF783D00207071070810B5044C04480A4674
:2090400021460AF051F8204610BD00BF783D00207C71070810B5044C04480A4621460AF091
:2090600043F8204610BD00BF783D00208871070810B50C4C94F8CD200023C4F8803012B1FE
:20908000094AC2F8F0305AF0D5FE20B10423022084F8843010BDD4F800396367092384F8F8
:2090A000843010BD981B0020883D002070B50D4D95F88430042B04460E460AD0082B06D106
:2090C000EB6F83420CD0FFF7D3FF022801D0012070BD0823C5E91F4685F88430022070BDC6
:2090E000022070BD981B002010B509F0D1FF104C58B194F88430032B12D894F8783001339B
:20910000DBB2072B84F8783003D9002384F8843010BDD4F800396367012384F8843010BD80
:20912000D4F8BC004FF480715DF0E4FFE5E700BF981B002070B54379234C002B14BF012373
:20914000002384F8B03003D1002384F8843070BD1E4D002195F9F720032040F0E5FD0028AE
:20916000F2D04668304640F0CDFD84F8CC000028EAD095F8F530003B18BF0123304684F80B
:20918000CD305AF01BFA09F083FF38B994F8783084F88400013384F8783070BD5AF030FFD5
:2091A00040B194F878300022013384F8783084F8842070BDD4F8002984F8780001236267ED
:2091C00084F8843070BD00BF981B0020883D002010B55AF015FF58B10B4C94F878300133D0
:2091E000DBB2072B84F8783003D9002384F8843010BD09F04DFF0028F7D0D4F8003963678D
:20920000012384F8843010BD981B00202DE9F041874C94F8B050002D00F0F88094F88420EF
:20922000844F0226531E082B41D8DFE803F037399E406850154005005AF0FCFD002840F0C1
:20924000EC80636FD4F80029FA3393422CD2FFF7BFFF94F88420E5E75AF0ECFD0028F0D010
:20926000D4F880300022012B84F8782040F2D980E16F94F8CD00013B0131C4E91F1310B1CE
:209280006C4BC3F8F020082284F88420A2F10805B5FA85F56D092846BDE8F08184F88460DF
:2092A0005AF0C8FD002841D194F88420531EDBB2022B09D8D4F80039616F5B1AC82BE5D92E
:2092C000FFF786FF94F88420042ADFD1E3E7236B002BDBD1E66ED4F800396367072284F80E
:2092E0008420002ED2D0D4E91821236F0120B047DAE7636FD4F8001964338B42C6D2D4F81A
:209300002C80B8F1000FF4D15AF094FD0028A0D0E66E84F87880042384F88430002E7AD01A
:20932000D4E91821236F4046B047BDE75AF028FA0028B9D197F8F930002BA3F10203B3FA3D
:2093400083F314BF022201225B0984F8792084F87A305AF015FA00287FF479AFD7F848317A
:20936000C4F88830032384F884305AF009FA00289AD1304BC4F8800093F82C61B3F82E019A
:20938000D3F830E1D3F830C1D3F83071D3F8302184F88E6093F83411A4F88C0093F835612A
:2093A00084F8922093F83501D3F83821C4F89420B3F83E81B3F83E2184F89310B3F83E119D
:2093C000C2F30B1343EA182303F00F0301F00F024FEA1E6E4FEA1C4C3F0A360900F00F005E
:2093E00003F5FA63042184F8990084F88FE084F890C084F8917084F89860A4F89A3084F854
:209400009C2084F884102846BDE8F08184F884502846BDE8F08105463DE7042384F8843062
:2094200039E7FAD1FFF724FE94F88420531E3EE7981B0020883D00202DE9F8431A4C94F868
:209440008460042E0546894690461F4608D0082E02D00020BDE8F883FFF7A8F80228F8D1F8
:20946000D4F8C00043F048FF94F87A3093B969021120FFF73DF898B9D4F80039C4F860909B
:209480000522C4E91B87656684F8842063670120BDE8F88329461120FFF72AF80028EBD0C5
:2094A00009F0CCFDD5E700BF981B002070B51E4C94F88430042B06460D4608D0082B22D101
:2094C000E36F83422DD0FFF771F802281BD1D4F8C00043F011FF00213720FFF709F8294656
:2094E0001720FFF705F8B0B994F87A306BB971021920FEF7FDFF70B90823C4E91F6584F8E1
:209500008430022070BD012070BD31461920FEF7EFFF0028F0D009F091FDFFF7E5FD0320FD
:2095200070BD022070BD00BF981B00202DE9F04F95B0CDE902236A4C0646884694F8843098
:20954000042B0DD0082B07D1E36FB34200F0C480FFF72CF80228F1D0012015B0BDE8F08F6A
:20956000D4F8C00043F0C8FE94F87A30002B40F0998071021820FEF7BBFF002840F0A680E4
:2095800094F88450FEF774FF082D0CBFFC21FE21D4F8BC9001913FF0DDFFB9F80C3001998B
:2095A000054642F20F77B9F8083098074BD548465DF088FD94F8C430002B52D005A80AF02A
:2095C00041FD94F8CE20D4F8BC30D4F8C810CDF81C8052060C33486805920693402200231A
:2095E000CDE90C3308920F934FF480620A930E934FF400730B9209930AF062FDD4F8C830CB
:2096000005A958680AF030FDD4F8C830D4F8BC2059680B6843F001030B6093889BB243F0D8
:20962000020393800299E1660399C4F860800122062300206666216784F8682084F8843004
:2096400015B0BDE8F08F01913FF084FF431BBB420199A8DD484645F0A9F994F8C430002B53
:20966000ACD1D4F8BC50CDF80480AB894FF4807B42F20F79019BBBB113F8017B01933FF0CC
:2096800069FF82462B899A0710D5BFB2AF813FF061FF07462B89DB0712D5BBF1010BAB897A
:2096A000E8D1BFE7314665E7FF27E8E73FF052FFA0EB0A004845E5DD284645F077F9B1E784
:2096C0003FF048FFC01B4845E4DDF5E709F0B6FCFFF70AFD032040E7FEF7CAFEFC2157E705
:2096E000981B00202DE9F04F944C94F8B07087B0002F00F0AF8194F8842042F20F75531ED7
:20970000082B00F28180DFE813F09300BC004A017F006D000900FA007F00E70094F8C430EA
:20972000002B40F02682D4F8BC6094F868A0236EB28903EB0A2A4FF4807BBAF1000F00F0D4
:20974000C9821AF8018B3FF005FF81463389980740F1C8811FFA88F8A6F80C803FF0FAFE67
:2097600080463389D90740F1C881BBF1010BB389E3D194F868300133DBB2022B84F868303F
:209780003FD1D4F8BC603FF0E5FEB389804633899A0740F19C81304600215DF093FCD4F8D3
:2097A000BC603FF0D7FEB389804633899B0740F18381304600215DF085FCFEF759FE00F053
:2097C0001F00052800F0A882FFF78EFCE66E002E00F0C9810022236F616E0120B04794F8C0
:2097E00084208CE7206E4FF40071FEF761FE012800F0A481022800F0A8810646002800F0D7
:20980000ED8194F88420531EDBB2022B00F22C81D4F80039616F5B1AC82B00F22181A2F17C
:209820000807B7FA87F77F09384607B0BDE8F08FD4F8C00043F060FD00210846FEF758FE33
:20984000064609F0FBFB012EDBD10023D4F8C00084F8793043F050FD40F2AB110820FEF793
:2098600047FE052800F08281012800F0018109F0E5FB94F87920002A00F06182022384F84C
:209880008430D4F8C00043F037FD94F87930022B0CBF4FF08046002600213720FEF728FE36
:2098A00031462920FEF724FE064609F0C7FB002EA7D194F87930022B00F0A48184F87A6057
:2098C000D4F8C00043F018FD00210920FEF710FEB0B309F0B3FB94E70826FEF7C9FDFF28D2
:2098E00000F03082013EF8D1636FD4F80029FA33934286D2FFF7F8FB94F88420FFE6FEF7AA
:20990000B7FDFF284FF0080605D0013EECD0FEF7AFFDFF28F9D1D4F880300022012B84F877
:20992000782040F21582E26F08210132013BC4E91F2384F884100A4671E700BF981B0020A4
:20994000C7481021FEF7B4FD06460028C1D101217F20FEF7DDFB01288046BAD1304602217A
:20996000FEF7D6FB002800F0B8810128B1D116213A20FEF7CDFB01308002C4F8880009F0E7
:209980005DFBD4F8C00043F0B7FC00210A20FEF7AFFD002840F08381032384F8843010212E
:2099A00002A8FEF785FD00287FF42BAF9DF815309DF816109DF810209DF809609DF80A001A
:2099C0001B01DBB243EA111303F5FA63A4F89A30DDF8113001F00F0184F89C101BBA1109A4
:2099E00002F00F0240EA062084F8981084F899209DF808109DF80B20C4F89430039BC4F874
:209A00009030A4F88C0084F88E1084F88F2009F015FB94F87A3073B9D4F8C00043F06CFC87
:209A20004FF400711020FEF763FD064609F006FB002E7FF45FAFD4F8BC0004215DF05AFBA9
:209A4000002204233846C4F8802084F8843007B0BDE8F08F384684F8847007B0BDE8F08F0F
:209A6000FFF742FB94F88420042A7FF4D8AEDBE6D4F8BC600DF1080AB3893B464FF0040B98
:209A800057464FF0FF099A463FF064FD8046338998073AD5A6F80C903FF05CFD80463389FE
:209AA000D90744D5B3899BB20FB107F8013BBBF1010BE9D1574632E03FF04CFDA0EB0800FD
:209AC000A8427FF772AE304644F070FF75E63FF041FDA0EB0800A8427FF759AE304644F081
:209AE00065FF5CE63FF036FDA0EB0900A8427FF72DAE304644F05AFF3BE63FF02BFDA0EB89
:209B00000800A8427FF72DAEF3E73FF023FDA0EB0800A842BBDD3046574644F047FF9DF8A2
:209B20000B30AB2B04BF022384F879309FE63FF011FDA0EB0800A842B1DDECE7636FD4F8C9
:209B4000002964339342BFF45CAE09F077FAFFF7CBFAE66E3EB100221046236F616EB0477B
:209B600094F88420CBE594F88420C8E584F879607DE6D4F8C8303B485968D3F81CE03A4E19
:209B80003A4B994288BF30461EF0005F00F095804668DFF8DCC006EA0E0616EA0C0F3FF4C3
:209BA0003EAE0EEA0C03C3600B68D4F8BC6023F001030B603389D80703D5B3893389D90767
:209BC000FBD433899A07FCD533891B06F9D4B38823F002031B041B0CB380D4E509F02EFA38
:209BE000E56E84F87860042384F88430002D3FF41BAED4E91821236F3046A84794F8842021
:209C0000531E01E6D4F8C00043F076FB31463A20FEF76EFCD4F8BC6001900DF1080AB389C7
:209C20003B464FF0040B57464FF0FF099A463FF091FC804633899A071CD5A6F80C903FF058
:209C400089FC80463389DB0730D5B3899BB20FB107F8013BBBF1010BE9D1574614E000BFD0
:209C6000381C002000600240006402400F6402407D0F7D0F3FF06EFCA0EB0800A842D9DD8F
:209C80003046574644F092FE019B43B909F0D6F9029B1BBAC3F3807384F87A3010E609F05D
:209CA000CDF9FFF721FA94F8842028E53FF052FCA0EB0800A842C5DDE2E70668DFF8B0C076
:209CC00006EA0E0616EA0C0F3FF4A9AD0EEA0C03836069E74FF0FF0835E504212C20FEF7DC
:209CE00017FA032106464E20FEF712FA0C2181463620FEF70DFA09F10209431C03FA09F3D1
:209D000008FA06F6A3FB0601430A43EAC153C4F8883009F093F934E6E56ED4F800396367DD
:209D2000072284F88420002D3FF479ADD4E91821236F0120A84794F88420531E64E584F856
:209D400084206CE509F07AF9042384F884306BE508D0042384F8843009F070F994F884203A
:209D6000531E51E5FEF722FC02287FF44AADB0E57D0F7D0F2DE9F04FC14C94F8581183B05E
:209D80000546C1F34001D4F8600143F0C1FA94F85811D4F85C01C94301F001016F1E43F08B
:209DA000B7FAFBB20193002D00F0D080B54EDFF8DC82B54D4FF01009D4F8600143F08CFACC
:209DC000D4F85C0143F088FAB4F86831002B40F04E8194F86A11D4F86C0143F099FA4FF0F1
:209DE000FA0A4FF47A710120D8F80430C3F30803002B40F00F81EFF31183002B40F00A8104
:209E0000D6F80029D5F808C0D6F800399A42F7D1D4F890319C45F3D8D4F88C7101FB07F313
:209E2000A3EB0C03B3FBF7F301FB0232D8F80430C3F30803002B40F0AB80EFF31183002BD1
:209E400040F0A680D6F80039D5F808B0D6F80079BB42F7D1D4F89071BB45F3D8D4F88C71B3
:209E600001FB07FCACEB0B0CBCFBF7FC01FB03C39B1AB3F57A7FD9D3BAF1010AB4D1D4F8C0
:209E8000600143F029FAD4F85C0143F025FAB4F86831002B40F0DF8094F86A11D4F86C0151
:209EA00081F0010143F034FAFA204FF47A714FF0010CD8F80430C3F30803002B40F0898011
:209EC000EFF31183002B40F08480D6F80029D5F808E0D6F800399A42F7D1D4F890319E45E6
:209EE000F3D8D4F88CA101FB0AF3A3EB0E03B3FBFAF301FB0232D8F80430C3F3080343BB78
:209F0000EFF311832BBBD6F80039D5F808B0D6F80079BB42F7D1D4F89071BB45F3D8D4F8E9
:209F20008CA101FB0AFEAEEB0B0EBEFBFAFE01FB03E39B1AB3F57A7FDDD30138B9D1019B46
:209F40005F1EFBB2FF2B01937FF436AF03B0BDE8F08FEFF3118A89F31288AF682B68DB03CF
:209F600044BFC4F888C1AF68D6F80039D4F888E15FFA8AFA8AF31188D4F88CA1734401FBE7
:209F80000AFEAEEB070EBEFBFAFE01FB03E3D0E7EFF3118E89F31288D5F808B02B68DF0330
:209FA00044BFC4F88801D5F808B0D6F80039D4F888C15FFA8EFE8EF31188D4F88C71634449
:209FC00001FB07FCACEB0B0CBCFBF7FC01FB03C34EE7EFF3118E89F31288D5F808A02B6894
:209FE000DA0344BFC4F888C1D5F808A0D6F80039D4F888215FFA8EFE8EF31188D4F88CE153
:020000040800F2
:20A000001A4401FB0EF3A3EB0A03B3FBFEF301FB023270E7EFF3118C89F31288D5F808E0DA
:20A020002B68DB0344BFC4F88801D5F808E0D6F80039D4F888215FFA8CFC8CF31188D4F871
:20A040008C711A4401FB07F3A3EB0E03B3FBF7F301FB0232EAE6D4F88431002B3FF424AFC6
:20A06000D4F87031C3F800A084F881A11CE7D4F88431002B3FF4B3AE3FF058FBAFE600BF61
:20A08000883D0020981B002010E000E000ED00E02DE9F04FBD4CBE4E94F85811D4F86001DF
:20A0A000DFF8F482BB4D83B0C1F3400143F030F994F85811D4F85C01C94301F0010143F077
:20A0C00027F9052301934FF01009D4F8600143F003F9D4F85C0143F0FFF8B4F86831002B2D
:20A0E00040F04C8194F86A11D4F86C0143F010F932274FF47A710120D8F80430C3F308037A
:20A10000002B40F00F81EFF31183002B40F00A81D6F80029D5F808C0D6F800399A42F7D1C1
:20A12000D4F890319C45F3D8D4F88CE101FB0EF3A3EB0C03B3FBFEF301FB0232D8F8043040
:20A14000C3F30803002B40F0AB80EFF31183002B40F0A680D6F80039D5F808B0D6F800C99E
:20A160006345F7D1D4F890C1E345F3D8D4F88CE101FB0EFCACEB0B0CBCFBFEFC01FB03C3FF
:20A180009B1AB3F57A7FD9D3013FB5D1D4F8600143F0A2F8D4F85C0143F09EF8B4F86831C6
:20A1A000002B40F0E08094F86A11D4F86C0181F0010143F0ADF832204FF47A710127D8F8E1
:20A1C0000430C3F30803002B40F08B80EFF31183002B40F08680D6F80029D5F808E0D6F8D3
:20A1E00000399A42F7D1D4F890319E45F3D8D4F88CA101FB0AF3A3EB0E03B3FBFAF301FB1F
:20A200000232D8F80430C3F3080343BBEFF311832BBBD6F80039D5F808B0D6F800E97345F0
:20A22000F7D1D4F890E1F345F3D8D4F88CA101FB0AFEAEEB0B0EBEFBFAFE01FB03E39B1A1F
:20A24000B3F57A7FDDD30138B9D1019B5F1E17F0FF0301937FF439AF03B0BDE8F08FEFF320
:20A26000118A89F31288D5F808B02B68DB0344BFC4F88871D5F808B0D6F80039D4F888E1BE
:20A280005FFA8AFA8AF31188D4F88CA1734401FB0AFEAEEB0B0EBEFBFAFE01FB03E3CEE71D
:20A2A000EFF3118E89F31288D5F808B02B68DB0344BFC4F88801D5F808B0D6F80039D4F871
:20A2C00088C15FFA8EFE8EF31188D4F88CE1634401FB0EFCACEB0B0CBCFBFEFC01FB03C32F
:20A2E0004EE7EFF3118E89F31288D5F808A02B68DA0344BFC4F88871D5F808A0D6F8003979
:20A30000D4F888215FFA8EFE8EF31188D4F88CE11A4401FB0EF3A3EB0A03B3FBFEF301FBFF
:20A3200002326EE7EFF3118C89F31288D5F808E02B68DA0344BFC4F88801D5F808E0D6F80F
:20A340000039D4F888215FFA8CFC8CF31188D4F88CC11A4401FB0CF3A3EB0E03B3FBFCF3A8
:20A3600001FB0232EAE6D4F88431002B3FF423AFD4F870311F6084F881711CE7D4F884314E
:20A38000002B3FF4B5AE3FF0D1F9B1E6883D0020981B002010E000E000ED00E00E4B30B4DA
:20A3A000DB68427801780D4CDB43C3F30223C3F10403DBB202FA03F360181B0101F01F05F2
:20A3C0000122490903F0F003AA4080F8003344F8212030BC704700BF00ED00E000E100E020
:20A3E00000F01F0240090123032803FA02F304D004280CD0022805D07047074A116C0B4314
:20A4000013647047044A516C0B4353647047024A116B0B43136370470038024000285FD033
:20A420000368374A2DE9F04103F13F4404F57E0402EB9422012492F8C42002F01F05520950
:20A44000032A04FA05F456D0042A4FD0022A48D08588B5FA85F0C0F11F00C0F3CC0603EBAD
:20A46000860600F0070082000F24306A944020EA04003062306A01FA02F202430021326213
:20A480004FF0010E0A464FF0030C02270EFA02F838EA050002F101021CD118680CFA01F420
:20A4A00020EA04001860186807FA01F606431E609E6826EA04069E6098689860586820EAF7
:20A4C0000800586058685860D86820EA0400D860D868D860102A01F10201D7D1BDE8F08159
:20A4E0007047084A556C2C435464B1E7054A156B2C431463ACE7034A156C2C431464A7E748
:20A50000E0C20608003802402DE9F0410378012B84B00446164635D0022B24D1836841F006
:20A52000800113B11A689B885383656803913FF011F8AB890399074642F20F782B899B0794
:20A5400015D528465CF0BEFD01236068324600215CF002FEA368FBB11A689B8813830120B8
:20A5600004B0BDE8F081002004B0BDE8F08103913EF0F0FFC31B43450399DFDD284644F016
:20A5800015FAE1E700920A46417990F904005DF09DF904B0BDE8F0810120E5E758B183880D
:20A5A0004FF00042B3FA83F332FA03F303D002490A6813430B607047003C0140134B026888
:20A5C000196821EA02011960596821EA0201596019680A431A609968026821EA0201996031
:20A5E000D96821EA0201D9604179102907D001F1804303F59E3319680A431A60704799688B
:20A6000011439960D9680A43DA607047003C0140002864D0F0B58388B3FA83F3202B0A4627
:20A6200085B00446C3F11F0143D02D4D2D4E05EB81037718C3F89421002197F8CC703EF032
:20A6400067FAB4F804C02268274CBCFA8CFCCCF11F0303F0FC0101F1804101F59C3103F0B6
:20A66000030398004FF00F0E02F13F438A680EFA00FE22EA0E0203F57E038A60C3F3872394
:20A68000834088684FF0004222FA0CF203433D448B6002A8626101234FF400618DF80E30C2
:20A6A0000292ADF80C10FFF789FF95F8D431F02B01D805B0F0BD3E44F02196F8DC308DF82D
:20A6C000043003224FF4807301A885F8D4118DF80520ADF80630FFF761FE05B0F0BD7047ED
:20A6E000883D0020E0C20608003C014010B4B8B10D4CD4F8DC31102B05D15DF8044B05210E
:20A7000000203EF0EDBC03EB4302224482F8E11101210B4482F8E00182F8E211C4F8DC313B
:20A720005DF8044B704700BF883D0020C0782021DCE700BF2DE9F04FDFF8A4A32DED028B05
:20A740009AF824120022CAE98522CAE9872297B0CAF8102219B19AF825228AF810229AF835
:20A7600026221AB19AF827228AF81F229AF82A221AB19AF82B228AF81A229AF828221AB13B
:20A780009AF829228AF815229AF82C3205935A1ED3B257B203937B1C00F0AA80C54AC64E2B
:20A7A00052F83790029602EBC70200231279019308EE102A1D46344698462678394630467A
:20A7C00044F0DCFC83463046BBF1000F1ED042F0A3FAEA1D1321D2B220B14FF0000E8271E6
:20A7E00080F807E03EF094F9207844F0F1FC4FF0070308F1010223714FF0010384F802806C
:20A800006070CDF804B05FFA82F8E3700135042D04F10504D1D118EE100A029ECDF81080AD
:20A82000FFF7DEFDA549A64A4868024042F440324A600FB9019B5BB9A24C4820FFF7D0FD94
:20A84000204602215DF03EF9A26842F00102A2609A489C4A4168BAF82E4241F40001416040
:20A86000516821F480515160916B21F4401141F480119163D16841F46001D160956B85F4F3
:20A880004011C1F3015101EB81011F2000FA01FC25EA0C0C112505FA01F141EA0C01916343
:20A8A000D16841F0E061D160956BC5F30151C1F10401C9B201EB810188404FF0120C25EADE
:20A8C00000000CFA01F108439063E4B1BAF83012CAF83842A1B1BAF83222CAF83C1262B102
:20A8E000019B7948521A90FBF2F2CAF840226BB917B0BDEC028BBDE8F08F744A1288EFE789
:20A90000734A1188E7E7734A1488DFE7484604995DF0D8F8684B012003F114080723F27834
:20A92000441CE4B252B375783279A5F10A0101EB410105EB450C092D03FA01FE03FA0CFB3E
:20A9400002FA01F140F29F80D9F80C2022EA0E0E41EA0E01C9F80C10421E02EB82021F216B
:20A96000062801FA02FC05FA02F272D8D9F8341021EA0C010A432046C9F834200536B0454E
:20A98000CDD1D9F80820039942F40072C9F80820D9F8082042F48072C9F80820D9F80820F0
:20A9A000574442F00102C9F8082097F9342202203FF0BAF9044600289AD0466830463FF0C5
:20A9C000A1F9454B421E03EB421393F84850002D8ED1059983F84910062283F84820002856
:20A9E00086D030463FF08EF95BF07CFF606809F067FB07A809F026FB049EA268374807925F
:20AA0000012E8CBF4FF4806300230D9309F14C034FF48072CDE90A56089309904FF4003395
:20AA200060680C9507A94FF400674FF40056CDE91023CDE90E7609F017FB6268136843F014
:20AA400001031360D9F8083043F08043C9F808304EE7C11FA0F10D0201EB81014FF01F0EF8
:20AA600002EB82020C280EFA01FC0EFA02F005FA01F113D8D9F8302022EA0C021143204661
:20AA8000C9F830107AE7D9F8101002FA0CF221EA0B0B42EA0B02C9F810205DE7D9F82C10CD
:20AAA00005FA02F221EA00010A432046C9F82C2064E700BFC4C30608983F002000230140DD
:20AAC000E030FCFF00200140803801002E7AFF1F2C7AFF1F2A7AFF1F98010020CC3F002021
:20AAE000883D00202DE9F84F2E4F00EBC00407EB8404D4F850622EB1054694F8610200F0E7
:20AB0000FF0820B14FF000084046BDE8F88F89469A4693463EF01EFD4FEA49010123C9B271
:20AB200084F8621284F863B284F8653284F8668284F8643284F8613284F86082B288C4F8A8
:20AB400068A291058146C4F86CA21DD43388DA0510D442F20F7405E03EF0FCFCA0EB0903FC
:20AB6000A34215DC33889B05F6D433889BB243F480733380B3889BB243F440734FF001083B
:20AB8000B3804046BDE8F88F98464046BDE8F88FB7F8B83201339BB22846A7F8B8325CF0E3
:20ABA00023FCB1E7883D002070B5464E96F8BA4204EB440306EBC303650093F8BC32032BBD
:20ABC0006ED8DFE803F059291E02254406EBC505D5F8C002002870D196F81C339C425FD0CD
:20ABE000013404F00302934286F8BA2258D002EB420406EBC4040223C4F8C00284F8BC32D7
:20AC000070BD2B1906EBC303D3F8C02272B1013AC3F8C022002070BD2B1906EBC303D3F851
:20AC2000C022002AF3D1022283F8BC22254406EBC50595F8C832013BDBB285F8C8328BBB96
:20AC4000214B96F81C63D3F83012D5F8C402621C02F003024B1E0324B242034485F8BC4220
:20AC6000B3FBF1F0C5F8C0021AD0994218D80138C5F8C002012070BD44F08AF980B1124BC6
:20AC80002C44D3F8302206EBC404012102F51C5384F8BC120F33B3FBF2F3C4F8C03270BDEC
:20ACA000012070BD084BD3F83022012002F2E733B3FBF2F3C5F8C03270BD0138C5F8C00280
:20ACC000002070BD883D002098010020054B93F81D23002AFBD1D3F8803E03491B6801F12E
:20ACE0000C001847883D0020A84000202DE9F84F3249DFF8D4B091F8F9100124022907469A
:20AD000019461046CBF82C404FF000022C4C1D4618BF7F02FDF774F92A4B63626B02A362CE
:20AD2000E36A40F2FF5943F093034FF400704FF48A62E3620121C4F83890A0601020E26034
:20AD400058F06AFE012D40F251434E46C4F83890CA4640F252488EBF4FF0120998464FF097
:20AD600011090A25C4F838A00121A7604846C4F80C8058F051FE03464FF0000C40F27742E1
:20AD800001213720A6632BB900231846CBF82830BDE8F88FA663C4F808C0E26058F03CFE34
:20ADA000013DA6630028EFD015F0FF05DAD10346CBF82C50CBF82830BDE8F88F883D0020FD
:20ADC000002C014000E1F505981B00202DE9F843184C94F88460042E0546894690461F46AC
:20ADE00008D0082E02D00020BDE8F883FEF740F90228F8D101234A4628460021FFF776FF64
:20AE000050B1FEF7E5F9E56E002DECD00022236F616E1046A847E6E7D4F80039C4F86090DC
:20AE20000522C4E91B87656684F8842063670120BDE8F883981B00202DE9F84F2F49DFF827
:20AE4000C49091F8F9101E4602292D4B07464FF0010418BF4702012E40F259481C6398BF7C
:20AE60004FF48B683B469346474640F2FF55B0468CBF4FF0190A4FF0180A0A241E4640F267
:20AE8000FF53C9F838300121C9F808605046C9F80C7058F0C1FD03464FF0000C40F2774294
:20AEA00001213720C9F83850A3B9584641460122FDF7A6F84646134A134B5362760296622E
:20AEC000D36A43F09103D3620D4B002108469962BDE8F88FC9F83850C9F808C0C9F80C208C
:20AEE00058F09AFD013CC9F838500028DDD014F0FF04C4D1024B1C63BDE8F88F883D00209F
:20AF0000981B0020002C014000E1F5052DE9F047374C82B005460E461746984694F884002A
:20AF200004280CD0082806D1E36FAB4207D0FEF79FF80228F2D0012002B0BDE8F087DFF8AE
:20AF4000B8A02666DAF8F0906566C9F34F210F294FEA592223D8D4F880300193FBB194F895
:20AF6000CD00E0B1B9F5005F13D0224831464FF40072484461F002F909F50072C2F34F2180
:20AF80001029CAF8F0204FEA522202D0019B012B21D192B2013A174EAD1A0B4600E001236D
:20AFA00032462846062601250021E766C4F8708084F8685084F88460FFF73EFF0028BBD0C5
:20AFC000FEF706F9E66E86B12846236F616E0022B0470320B0E7E26F013B01320421C4E9BE
:20AFE0001F2384F884100220A6E70320A4E700BF981B002094690020883D00202DE9F047C1
:20B00000274D95F8843E022B82B004460F46164611D0012B0BD10091134695F8891E0246C4
:20B0200095F9880E5CF052FC02B0BDE8F087002002B0BDE8F087D5F88C3E13B11A689B8896
:20B040005383D5F888AE3EF085FABAF80C30804642F20F79BAF808309B0714D52146504688
:20B060005CF030F83346D5F8880E3A4600215CF073F8D5F88C3E83B11A689B881383012001
